:0400000080312B28F8
:100008007E14803140017F08FD004E01961A8C1E37
:1000180011288E313D26803126280B1F2628991954
:100028008F1D1A288D316C258031262819190F1D2E
:10003800212880314720803126289A18901C2628AC
:100048008E3151267D084001FF007E100900803165
:100058002D28F001F101F201F301F401F501F60197
:10006800603084000030850010308D31B825803133
:10007800A03084000030850025308D31B8257E10F1
:1000880040018F313F2F4E010F1143019A1F7229F2
:100098009A13F4017108023E860087010108860060
:1000A80087018101810AF10108004001E218080076
:1000B8006108F9007908F1006108860087010108E4
:1000C800F9007908F300610886008701413FF200D2
:1000D8000330F9007908E1076108C53A031D78285B
:1000E800C230F9007908E10062106108600603195E
:1000F800E21443011B140230F9007908F4000800E7
:1001080043019B140230F9007908F4000800430108
:100118001B1F97280130F90079084001E4070430D3
:100128008E31A52608007608FA007508F900FA3617
:10013800F90C790843019600751CA7280B30F900C3
:100148007908F40008000330F9007908F400080081
:1001580043011B1FB8280130F90079084001E40762
:1001680004308E31A52608009B147608FA0075081D
:10017800F9007A08F900FA0106307905FB00003029
:100188007A05FC00F0307B04F50000307C04F600B2
:1001980075144001EB01EB0A0230F9007908F4000C
:1001A800080040016B030319EA28720886008701DA
:1001B800403FF500413FF600720886008701433F43
:1001C800F000720886008701423FEC007508430181
:1001D8009600751CF4280530F9007908F400080029
:1001E8000330F9007908F400080043011B1F0729B0
:1001F8000130F90079084001E40743011B13053079
:100208008E31A526080001304001EC026C0A031D5E
:1002180020290430F9007908F2070130F302031DA0
:10022800192900308E31A526080043019B1402309D
:10023800F9007908F40008007008860087010108B1
:10024800430196000130F9007908F00708004301DE
:100258001B1F39290130F90079084001E4070430EF
:100268008E31A52643011B1308009B150830F900A1
:100278007908F40008000830F9007908F40043010F
:100288009B15080043011608F900700886008701CD
:10029800790881000130F9007908F0070130400140
:1002A800EC0203195E2943019B120630F900790814
:1002B800F400622943019B168E310A2643011B165E
:1002C800080000308E31A52608000130F9007908B1
:1002D8004001E40706308E31A52608007408840022
:1002E8000C3004020318692988310435003E820065
:1002F80008008D3187258131003A031D08008631B9
:100308001F26813140014C08D5004D08D6004E0803
:10031800D7008D31C6258131003A0319B62940012D
:100328005508A0005608A1005708A2000030A300F5
:10033800F030A4004130A500873106278131031C25
:10034800B6298D319E25813103304001A600003049
:10035800A7008E31EE2681318D31962581318D3180
:100368009A25080040015508A0005608A100570822
:10037800A2000030A3008030A4004030A5008731DF
:1003880006278131031CEC2900304001A000C03051
:10039800A1004030A2005508A3005608A400570841
:1003A800A500873106278131031CEC294001670825
:1003B800031DEC290430AA000030AB008D31FF2565
:1003C8004001E701E70AE601E5014101AA01080049
:1003D80040015508A0005608A1005708A2000030A7
:1003E800A3001030A4004130A500873106278131D1
:1003F800031C212A00304001A0004030A1004130F8
:10040800A2005508A3005608A4005708A500873184
:1004180006278131031C212A40016608031D212A71
:100428000030AA00AB008D31FF254001E701E6014D
:10043800E60AE5014101AA01080040015508A000AB
:100448005608A1005708A2000030A3006030A4009D
:100458004130A500873106278131031C572A003017
:100468004001A0008830A1004130A2005508A30037
:100478005608A4005708A500873106278131031CB8
:10048800572A40016508031D572A0130AA00003089
:10049800AB008D31FF254001E701E601E501E50AE2
:1004A8004101AA01080040015508A0005608A10012
:1004B8005708A2000030A3009830A4004130A500DE
:1004C800873106278131031C8E2A00304001A000A5
:1004D800B030A1004130A2005508A3005608A4007E
:1004E8005708A500873106278131031C8E2A410150
:1004F8002A08031D8E2A02304001AA000030AB00F2
:100508008D31FF254001E701E601E5014101AA011E
:10051800AA0A080040015508A0005608A10057087B
:10052800A2000030A300E830A4004130A5008731C4
:1005380006278131031C080003304001AA0000305F
:10054800AB008D31FF254001E701E601E5014101DE
:10055800AA01080040013C08C2003D08C3003E084B
:10056800C4000310430D440DC5004508C6004608E5
:10057800031DC52A0030BC000030BD000030BE009D
:1005880008003F08C2004008C3004108C400031027
:10059800430D440DC5004508CB004B08031DDB2A5D
:1005A8000030BC000030BD000030BE0008004B0821
:1005B8007B3EC2004208C6073C08C2003D08C30093
:1005C8003E08C4001030C436C30CC20C890BE72A9D
:1005D8004208C5004508CB003F08C2004008C300D8
:1005E8004108C4001030C436C30CC20C890BF72A6A
:1005F8004208C5004508CB068030C2004208CB053A
:10060800BD17C017FF30BF05FF30C0050030C1055A
:100618000030C7000030C8000030C9000730C200F1
:100628004208CA003C1C1E2B3F08C7074008C83DAB
:100638004108C93D0130BE36BD0CBC0C890B1F2BCF
:100648000130BF35C00DC10D890B252B0130CA0201
:10065800031D162B0930C2004208CA003C1C3A2B65
:100668003F08C7074008C83D4108C93D0130BE36AC
:10067800BD0CBC0C890B3B2B0130C936C80CC70C10
:10068800890B412B0130CA02031D322B4708A000F9
:100698004808A1004908A2004608C2004208A30071
:1006A8004B08C3004308A4008531BA25400120083F
:1006B800BC002108BD002208BE00080040012F0828
:1006C800B2003008B3003108B4000310330D340D04
:1006D800B5003508BA003A08031D792B0030AC0084
:1006E8000030AD000030AE0008002C08B2002D0824
:1006F800B3002E08B4000310330D340DB5003508CF
:10070800BB003B08031D8F2B0030AC000030AD0050
:100718000030AE0008000030B7000030B8000030EC
:10072800B90089303B07B2003208BA022F08B2007C
:100738003008B3003108B4001030B436B30CB20C32
:10074800890BA12B3208B5003508BB002C08B20074
:100758002D08B3002E08B4001030B436B30CB20C18
:10076800890BB12B3208B5003508BB068030B200C2
:100778003208BB05B017FF30AF05FF30B0050030B9
:10078800B105AD17FF30AC05FF30AD050030AE0543
:100798001830B2003208B6000130B735B80DB90DBF
:1007A800890BD12B2E083102031DE02B2D083002B6
:1007B800031DE02B2C082F02031CE92B2C08AF0289
:1007C8002D08B03B2E08B13B37140130AF35B00DC2
:1007D800B10D890BEA2B0130B602031DD02B370867
:1007E800A0003808A1003908A2003A08B20032086F
:1007F800A3003B08B3003308A4008531BA254001A3
:100808002008AC002108AD002208AE0008006430C2
:100818004001AA002A08B9004830AA002A08EF00B7
:100828003030AA002A08EE006F30AA002A08A0007B
:10083800A101A10A7630A2000030A300AB308F31AD
:10084800962784316E304001AA002A08A000A10131
:10085800A10A7630A2000030A300AF308F3196276E
:100868008431BF304001AA002A08A0000330AB0041
:100878002B08A1007630A2000030A300B3308731E6
:10088800C6278431AB304001AA002A08A0006D3089
:10089800AB002B08A100033086317F26843102305B
:1008A80040016D06031D5C2C0130B902031D532C59
:1008B8003908031D682CE801E80AFF30A700FF305B
:1008C800A800FF30A900080041013F080F39400186
:1008D800AA00AB01AC011030AA35AB0DAC0D890BE9
:1008E800702C2A08B0002B08B1002C08B200410176
:1008F80040084001AA00AB012A08AB00AA012A0857
:10090800B3002B08B400B5010030B6000030B700C2
:100918000030B8003608AA003708AB003808AC0029
:1009280030083307AD003108343DAE003208353D9C
:10093800AF002D08AA072E08AB3D2F08AC3D2A08AA
:10094800A7002B08A8002C08A90008000E304001B9
:10095800A6000030A7008E31EE2684318D31962511
:100968008431FA300032890BB62C8D319A258431C6
:10097800FA300032890BBD2C00308D31A625843128
:100988008D31752584310E304001A6000030A70056
:100998008E31EE26843140016A08031DF62C8C1A2C
:1009A800CF2C06304001DE003030890BD92CDE0B0D
:1009B800D92C000040018C1ACF2C8D319E25843112
:1009C8008D3178258431FA300032890BE82C0B30D0
:1009D8004001A6000030A7008E31EE2684318D310B
:1009E80096250800EA018D31782584318D319E25C0
:1009F8008431FA300032890BFE2C0D304001A600FC
:100A08000030A7008E31EE2684318D319625843151
:100A180000308D31B22584318D317E2584314001FD
:100A28006908031D382D1E308631C42684314001E3
:100A38008C1A132D06304001DE003030890B222D30
:100A4800DE0B222D000040018C1A132D8D318425D8
:100A580084310B304001A6000030A7008E31EE260D
:100A680084318D3196250800E9018D318425843142
:100A7800AA2C40018C1E3D2D0D0C890C0139AA00B1
:100A88000D0C013909072A04AB002B08AC007B2D9B
:100A98000730A6000030A7008E31EE2685318D3153
:100AA800962585318A2D08304001A6000030A70020
:100AB8008E31EE2685318D31962585318A2D093086
:100AC8004001A6000030A7008E31EE2685318D3119
:100AD800962585318A2D0A304001A6000030A700EE
:100AE8008E31EE2685318D31962585318A2D40014E
:100AF8002C08003A03194C2D013A0319572D033AD3
:100B08000319632D013A03196F2D8A2D4001AD0198
:100B18002D08031D402D0D18AB2D06304001AA00ED
:100B28003030890B952DAA0B952D000040010D182A
:100B3800AB2D191621304001AA007630890BA22D61
:100B4800AA0BA22D000040011912AD01AD0A8C1AA2
:100B58008C2D06304001AA003030890BB12DAA0B2C
:100B6800B12D000040018C1E08008C2D4001230887
:100B78000319C32D220821042004031DD42D00309D
:100B8800A0000030A1000030A20008000130A5003C
:100B98002508A3070130A236A10CA00C890BCF2D84
:100BA800FE3022050319ED2DCA2D0130A5002508B8
:100BB800A3070130A007003003180130A107003057
:100BC80003180130A2070130A236A10CA00C890B32
:100BD800E82DFF3022050319FA2DD92D0130A30283
:100BE8000130A035A10DA20D890BF52DA11B002EFA
:100BF800023023020318F22D2318082EFF30A00517
:100C08007F30A105FF30A2050310A30C2308A5001F
:100C1800A601A7011030A535A60DA70D890B0F2E2B
:100C28002508A0042608A1042708A20424080319FB
:100C38000800A217080084310B24863140012708D8
:100C4800D2002808D3002908D400520A031D392EDF
:100C5800530A031D392E540A031D392E0030CC00C7
:100C68008030CD00BF30CE0008000A30BC002330F1
:100C7800BD004130BE000030AC00C830AD0042308D
:100C8800AE005208A8005308A9005408AA008E31E3
:100C98008F26863140012808AF002908B0002A08AD
:100CA800B10083316223863140012C08BF002D0832
:100CB800C0002E08C1008231AE22863140013C08B6
:100CC800CF003D08D0003E08D1000030AC007A309B
:100CD800AD004430AE004F08AF005008B0005108D6
:100CE800B1008331622340012C08CC002D08CD00CF
:100CF8002E08CE0008004001A3006218B32E02306F
:100D0800A200210886008701220881002008A2008D
:100D1800600A86008701220881002308A200600873
:100D280086008701220881002108A2006008023E8F
:100D380086008701220881000330A2002208E0070C
:100D48006008C53A031DAC2EC230A2002208E0009C
:100D5800E21061086006031DB82E6214B82E21083F
:100D6800860087018101810A2108860087010230F7
:100D78000106031D08008D31A2254E010F1508003C
:100D88004001DD005D08D800D9015808A0005908C5
:100D9800A100AD30A2000330A3008F312327863194
:100DA80040012008DA002108DB000030DB1BFF309F
:100DB800DC0001304101A307003003180130A4070B
:100DC800003003180130A50740015C0841012506E1
:100DD800031DF82E40015B0841012406031DF82E6F
:100DE80040015A0841012306031D08000030A300F2
:100DF8000030A4000030A50081317D2186318F317B
:100E0800DB2708004001A21F1D2F2009A600210989
:100E1800A7002209A800A60A0319A70A0319A80A05
:100E280000302607A0000030273DA1008030283D73
:100E3800A200A51F332F2309A6002409A70025090E
:100E4800A800A60A0319A70A0319A80A003026074A
:100E5800A3000030273DA4008030283DA500803045
:100E6800A2068030A50625082202031D08002408D2
:100E78002102031D080023082002080040018C1EDF
:100E8800422F18150D18622F06304001A00030308F
:100E9800890B4C2FA00B4C2F000040010D18622F1E
:100EA800991521304001A0007630890B592FA00BED
:100EB800592F0000400199110D1C602F8C1A462FE4
:100EC80006304001A0003030890B682FA00B682F36
:100ED800000040018C1A462F8C1E702F1811080034
:100EE80040018C1A080006304001DF003030890BC1
:100EF8007B2FDF0B7B2F000040018C1A080072301B
:100F08004001DF00A130890B872FDF0B872F0032CC
:100F180040018C1A962F8E311A26873140018C1A7F
:100F28000800922F8431AA24873140018C1A0800C6
:100F3800992F02304001980099019A01E1309200FE
:100F4800E73093005F30940042307E01CE00E030FD
:100F5800C300C030B800E501C401B901CF011030A9
:100F6800BA00C5018030D0001730A3001830A400A3
:100F78007D014808C0391338C8004908C0391438F9
:100F8800C90008004001A6002308A5002208A40003
:100F9800A435A50D2608860087012408C03F25082A
:100FA800C13F2608860087010130810441310030A5
:100FB80081042108A4002608023E8600870124082F
:100FC80081002008A4002608033E86008701240823
:100FD800810008008D319E258731FA300032890B57
:100FE800F22F0D304001A6000030A7008E31EE260A
:100FF80087318D3196250800803159288031842821
:101008008031D5288031F9288131652981312B2912
:1010180081313F2981316529813146298131692909
:0810280080318B288031AC28D7
:101AD8004E018F1108008D318A2508008D318E2521
:101AE80008004B019E1708004B019E130800450192
:101AF8008E1708008D317B25080045018E130800DC
:101B08008D31812508004001680808004001EA017C
:101B1800EA0A08004001E901E90A080040010E1834
:101B28000800922D40010E1D0800962D40019810C6
:101B380098150800400198149811080074080319B2
:101B48000800A22D4001A00020084B019C000800BD
:101B58004001A000200845018C0008004001A100B8
:101B680021088D31AC250800640080010131890B02
:101B7800B92D00344F0196019701980199019A01F6
:101B88009B01080040018C1C8C1DCC2D01300800E5
:101B980000300800603051018D008F0191019301E0
:101BA800900192010800400121084101C80040014C
:101BB80020084101C7000800400121084101C60072
:101BC800400120084101C5000800410147084804B8
:101BD8000319080048088A0047080A008D310800E0
:101BE8004101450846040319080046088A004508CB
:101BF8000A008D31080040012B08A7002A08A6001A
:101C08008E31EE268D318D31962508000430F7008F
:101C18007708F2070130F302031D172E0430F7008E
:101C28007708F4000800F401F40A08000C304001B9
:101C3800A6000030A7008E31EE268E318D31962514
:101C48008E3185313D258E318731422708008D310F
:101C5800BE258E3187319D278E318D31CE258E312F
:101C68008F3108278E318E3179268E318E31652657
:101C780008004E018C1201304101A8070030A93D2F
:101C88000F302902A03003192802031C08008D31E7
:101C9800E9254101A801A90108004E019010013071
:101CA8004101A6070030A73D27302702103003194D
:101CB8002602031C08008D31F4254101A601A70165
:101CC800080069304B019F003A309D009C014E018D
:101CD8008C1296166F304001A0000D30A1008D3196
:101CE800D72580304B019E00080003304501900045
:101CF8008F01910116308D008C014E0190109A14BD
:101D080072304001A0000D30A1008D31E025F03087
:101D180045018E00080040012808A0002908A100FC
:101D28002A08A2008E30AB002B08A300A40185313D
:101D3800BA2540012008A8002108A9002208AA0005
:101D48000800F80043011B157108023E8600870150
:101D580001080319BA2E7808F7007108023E8600B8
:101D6800870101088600870177088100F4010800CF
:101D780040010D18080006304001AA003030890BD8
:101D8800C32EAA0BC32E000040010D18CE2E8F3192
:101D980078278E3140010D1CCE2E8731EE270800A2
:101DA80040019A171816181200320032000040013C
:101DB8002708A1002608A0008F31B6278E31A6304B
:101DC800890BE42E0032400118129A1718160E1DBE
:101DD8000800EB2E4001A801A90100302604A80044
:101DE80098302704A9009A17181618122908A10074
:101DF8002808A0008F31B627400118129A17181624
:101E08000032003200000800C2304001A000200863
:101E1800E100C230A0002008E000E2146210E401F2
:101E2800C0304301990028309A0008309C000330E4
:101E380097004E010F118F111915991508004001CF
:101E4800A401A501201C2C2F2208A4072308A53DC6
:101E58000130A235A30D890B2D2F0130A136A00C1E
:101E6800890B322F20082104031D262F2508A100E5
:101E78002408A00008008E312B268F318B170B17F2
:101E88008F315B278F318D3178258F318D318425C6
:101E98008F3186311F268F318E31BC268F318731A5
:101EA80074278F311E308631C4268F31502F400160
:101EB8009A169A128D3192258F3100304001A60072
:101EC800A830A7008E31D4268F3105304001A600F6
:101ED8000030A7008E31EE268F310830890B722F23
:101EE80000008D31962508000F304001A600003013
:101EF800A7008E31EE268F318D3196258F31FA303D
:101F08000032890B842F8D319A258F31FA300032B7
:101F1800890B8B2F0F304001A6000030A7008E31AF
:101F2800EE2608004001A6002308A5002208A40008
:101F3800A435A50D2608860087012408C03F25087A
:101F4800C13F2108A4002608023E86008701240814
:101F580081002008A4002608033E86008701240883
:101F6800810008004001A401A5010030A4008030D0
:101F7800A500240825040319D92F9A13240820053D
:101F8800A20025082105A300220823040319CE2F47
:101F98001816CF2F18129A170130A536A40C890BE2
:101FA800D12F24082504031DC12F9A1308004001CE
:101FB8000C1C08008D31C6258F31003A0319F52F06
:101FC8008D319E258F3106304001A6000030A700D4
:101FD8008E31EE268F318D3196258F318D319A25B0
:101FE800080006304001A6000030A7008E31EE261A
:081FF8008F318D3196250800A0
:020000040001F9
:0A000E00EC3FFF3F9F3FFF3FFF3F25
:00000001FF
